{
    "contractName": "Expert",
    "abi": [
        {
            "inputs": [
                {
                    "internalType": "address",
                    "name": "_expert",
                    "type": "address"
                },
                {
                    "internalType": "address",
                    "name": "_wmatic",
                    "type": "address"
                },
                {
                    "internalType": "address",
                    "name": "_rebalancer",
                    "type": "address"
                },
                {
                    "internalType": "address",
                    "name": "_routerAddress",
                    "type": "address"
                }
            ],
            "stateMutability": "nonpayable",
            "type": "constructor"
        },
        {
            "inputs": [
                {
                    "internalType": "address",
                    "name": "",
                    "type": "address"
                }
            ],
            "name": "amount_deposited",
            "outputs": [
                {
                    "internalType": "uint256",
                    "name": "",
                    "type": "uint256"
                }
            ],
            "stateMutability": "view",
            "type": "function"
        },
        {
            "inputs": [
                {
                    "internalType": "address",
                    "name": "",
                    "type": "address"
                }
            ],
            "name": "composition",
            "outputs": [
                {
                    "internalType": "uint256",
                    "name": "",
                    "type": "uint256"
                }
            ],
            "stateMutability": "view",
            "type": "function"
        },
        {
            "inputs": [
                {
                    "internalType": "address",
                    "name": "_from",
                    "type": "address"
                },
                {
                    "internalType": "address",
                    "name": "_token",
                    "type": "address"
                },
                {
                    "internalType": "uint256",
                    "name": "_amount",
                    "type": "uint256"
                }
            ],
            "name": "deposit",
            "outputs": [],
            "stateMutability": "nonpayable",
            "type": "function"
        },
        {
            "inputs": [],
            "name": "expert",
            "outputs": [
                {
                    "internalType": "address",
                    "name": "",
                    "type": "address"
                }
            ],
            "stateMutability": "view",
            "type": "function"
        },
        {
            "inputs": [
                {
                    "internalType": "address[]",
                    "name": "_change",
                    "type": "address[]"
                },
                {
                    "internalType": "uint256[]",
                    "name": "_change_amount",
                    "type": "uint256[]"
                }
            ],
            "name": "rebalance",
            "outputs": [],
            "stateMutability": "nonpayable",
            "type": "function"
        },
        {
            "inputs": [],
            "name": "rebalancer",
            "outputs": [
                {
                    "internalType": "address",
                    "name": "",
                    "type": "address"
                }
            ],
            "stateMutability": "view",
            "type": "function"
        },
        {
            "inputs": [],
            "name": "routerAddress",
            "outputs": [
                {
                    "internalType": "address",
                    "name": "",
                    "type": "address"
                }
            ],
            "stateMutability": "view",
            "type": "function"
        },
        {
            "inputs": [],
            "name": "total_amount_deposited",
            "outputs": [
                {
                    "internalType": "uint256",
                    "name": "",
                    "type": "uint256"
                }
            ],
            "stateMutability": "view",
            "type": "function"
        },
        {
            "inputs": [
                {
                    "internalType": "uint256",
                    "name": "_percent",
                    "type": "uint256"
                }
            ],
            "name": "withdraw",
            "outputs": [],
            "stateMutability": "nonpayable",
            "type": "function"
        },
        {
            "inputs": [],
            "name": "wmatic",
            "outputs": [
                {
                    "internalType": "address",
                    "name": "",
                    "type": "address"
                }
            ],
            "stateMutability": "view",
            "type": "function"
        }
    ],
    "bytecode": "608060405234801561001057600080fd5b50604051610b64380380610b648339818101604052608081101561003357600080fd5b50805160208083015160408085015160609095015181518083019092528382527f4465706c6f79696e67206120457870657274207769746820616464726573733a82850152939491939192610092919086906104cd6100e5821b17901c565b600080546001600160a01b039586166001600160a01b03199182161790915560028054948616948216949094179093556001805492851692841692909217909155600380549190931691161790556101c6565b6101a182826040516024018080602001836001600160a01b03168152602001828103825284818151815260200191508051906020019080838360005b83811015610139578181015183820152602001610121565b50505050905090810190601f1680156101665780820380516001836020036101000a031916815260200191505b5060408051601f198184030181529190526020810180516001600160e01b0390811663319af33360e01b179091529094506101a51692505050565b5050565b80516a636f6e736f6c652e6c6f67602083016000808483855afa5050505050565b61098f806101d56000396000f3fe608060405234801561001057600080fd5b506004361061009e5760003560e01c8063920b795011610066578063920b79501461024b57806393bde24614610265578063dffe7a301461026d578063ed5fb5f714610293578063fb41be16146102b95761009e565b806301d22ccd146100a35780632be01190146100c75780632e1a7d4d146101f05780633268cc561461020d5780638340f54914610215575b600080fd5b6100ab6102c1565b604080516001600160a01b039092168252519081900360200190f35b6101ee600480360360408110156100dd57600080fd5b8101906020810181356401000000008111156100f857600080fd5b82018360208201111561010a57600080fd5b8035906020019184602083028401116401000000008311171561012c57600080fd5b919080806020026020016040519081016040528093929190818152602001838360200280828437600092019190915250929594936020810193503591505064010000000081111561017c57600080fd5b82018360208201111561018e57600080fd5b803590602001918460208302840111640100000000831117156101b057600080fd5b9190808060200260200160405190810160405280939291908181526020018383602002808284376000920191909152509295506102d0945050505050565b005b6101ee6004803603602081101561020657600080fd5b5035610324565b6100ab610327565b6101ee6004803603606081101561022b57600080fd5b506001600160a01b03813581169160208101359091169060400135610336565b610253610485565b60408051918252519081900360200190f35b6100ab61048b565b6102536004803603602081101561028357600080fd5b50356001600160a01b031661049a565b610253600480360360208110156102a957600080fd5b50356001600160a01b03166104ac565b6100ab6104be565b6001546001600160a01b031681565b6001546001600160a01b03163314610320576040805162461bcd60e51b815260206004820152600e60248201526d37b7363c903932b130b63731b2b960911b604482015290519081900360640190fd5b5050565b50565b6003546001600160a01b031681565b6000811161038b576040805162461bcd60e51b815260206004820152601a60248201527f5f616d6f756e742073686f756c6420626520706f736974697665000000000000604482015290519081900360640190fd5b6001600160a01b0383166103e6576040805162461bcd60e51b815260206004820152601d60248201527f5f66726f6d2073686f756c64206e6f7420626520302061646472657373000000604482015290519081900360640190fd5b6001600160a01b0382161580159061040c57506002546001600160a01b03838116911614155b156104595760025460009061042c9084906001600160a01b031684610584565b6001600160a01b038516600090815260046020526040902080548201905560068054909101905550610480565b6001600160a01b038316600090815260046020526040902080548201905560068054820190555b505050565b60065481565b6000546001600160a01b031681565b60046020526000908152604090205481565b60056020526000908152604090205481565b6002546001600160a01b031681565b61032082826040516024018080602001836001600160a01b03168152602001828103825284818151815260200191508051906020019080838360005b83811015610521578181015183820152602001610509565b50505050905090810190601f16801561054e5780820380516001836020036101000a031916815260200191505b5060408051601f198184030181529190526020810180516001600160e01b031663319af33360e01b179052935061093892505050565b60006001600160a01b038416158015906105a657506001600160a01b03831615155b1561071a57606084816000815181106105bb57fe5b6001600160a01b0392831660209182029290920101526002548251911690829060019081106105e657fe5b60200260200101906001600160a01b031690816001600160a01b031681525050838160028151811061061457fe5b60200260200101906001600160a01b031690816001600160a01b031681525050600360009054906101000a90046001600160a01b03166001600160a01b0316635c11d7958460008430426040518663ffffffff1660e01b81526004018086815260200185815260200180602001846001600160a01b03168152602001838152602001828103825285818151815260200191508051906020019060200280838360005b838110156106ce5781810151838201526020016106b6565b505050509050019650505050505050600060405180830381600087803b1580156106f757600080fd5b505af115801561070b573d6000803e3d6000fd5b50600094506109319350505050565b6001600160a01b038416610851576002546060805190916001600160a01b031690829060009061074657fe5b60200260200101906001600160a01b031690816001600160a01b031681525050838160018151811061077457fe5b6001600160a01b0392831660209182029290920181019190915260035460405163b6f9de9560e01b815260006004820181815230604484018190524260648501819052608060248601908152895160848701528951969098169763b6f9de95978c9795968b969495939460a49091019187810191028083838b5b838110156108065781810151838201526020016107ee565b50505050905001955050505050506000604051808303818588803b15801561082d57600080fd5b505af1158015610841573d6000803e3d6000fd5b5060009550610931945050505050565b6001600160a01b038316610931576060848160008151811061086f57fe5b6001600160a01b03928316602091820292909201015260025482519116908290600190811061089a57fe5b6001600160a01b0392831660209182029290920181019190915260035460405163791ac94760e01b8152600481018781526000602483018190523060648401819052426084850181905260a060448601908152895160a48701528951969098169763791ac947978c9794968b96949593949360c49091019187810191028083838b83156106ce5781810151838201526020016106b6565b9392505050565b80516a636f6e736f6c652e6c6f67602083016000808483855afa505050505056fea264697066735822122066d8ec3b4b65561c4a01d3ba4015c7851558e33dba667db5c1367ad9965410ed64736f6c634300060c0033",
    "sourcePath": "/home/badass/Documents/crypto-case/on-chain/contracts/Expert.sol",
    "compiler": {
        "name": "solc",
        "version": "0.6.12+commit.27d51765"
    },
    "functionHashes": {
        "amount_deposited(address)": "dffe7a30",
        "composition(address)": "ed5fb5f7",
        "deposit(address,address,uint256)": "8340f549",
        "expert()": "93bde246",
        "rebalance(address[],uint256[])": "2be01190",
        "rebalancer()": "01d22ccd",
        "routerAddress()": "3268cc56",
        "total_amount_deposited()": "920b7950",
        "withdraw(uint256)": "2e1a7d4d",
        "wmatic()": "fb41be16"
    },
    "gasEstimates": {
        "creation": {
            "codeDepositCost": "489400",
            "executionCost": "infinite",
            "totalCost": "infinite"
        },
        "external": {
            "amount_deposited(address)": "1168",
            "composition(address)": "1190",
            "deposit(address,address,uint256)": "infinite",
            "expert()": "1059",
            "rebalance(address[],uint256[])": "infinite",
            "rebalancer()": "1038",
            "routerAddress()": "1104",
            "total_amount_deposited()": "998",
            "withdraw(uint256)": "233",
            "wmatic()": "1125"
        },
        "internal": {
            "_swap(address,address,uint256)": "infinite"
        }
    }
}